{
  "contractName": "SimpleContract",
  "abi": [
    {
      "inputs": [
        {
          "internalType": "uint256",
          "name": "initialBalance",
          "type": "uint256"
        }
      ],
      "payable": false,
      "stateMutability": "nonpayable",
      "type": "constructor"
    },
    {
      "constant": false,
      "inputs": [
        {
          "internalType": "uint256",
          "name": "requestedAmount",
          "type": "uint256"
        }
      ],
      "name": "requestAmount",
      "outputs": [
        {
          "internalType": "uint256",
          "name": "",
          "type": "uint256"
        }
      ],
      "payable": false,
      "stateMutability": "nonpayable",
      "type": "function"
    }
  ],
  "bytecode": "0x608060405234801561001057600080fd5b506040516101353803806101358339818101604052602081101561003357600080fd5b8101908080519060200190929190505050806000819055505060db8061005a6000396000f3fe6080604052348015600f57600080fd5b506004361060285760003560e01c8063e74641d614602d575b600080fd5b605660048036036020811015604157600080fd5b8101908080359060200190929190505050606c565b6040518082815260200191505060405180910390f35b60006075826099565b15608f578160008082825403925050819055508190506094565b600090505b919050565b600080548210905091905056fea265627a7a723158207a5eaca4804e1f208a1e8d581af0f6be0d1e2192a04d36e9bffa0f5760f6d46664736f6c63430005100032",
  "source": "pragma solidity >=0.4.21 <0.7.0;\ncontract SimpleContract {\n    // A simple contract that will return the specified amount of money the user requests if it has enough balance.\n    // Otherwise, it will return 0.\n    uint _currentBalance;\n    constructor(uint initialBalance) public {\n        _currentBalance = initialBalance;\n    }\n    \n    function _checkFunds(uint requestedAmount) private view returns (bool) {\n        return (requestedAmount < _currentBalance);\n    }\n    \n    function requestAmount(uint requestedAmount) public returns (uint) {\n        if (_checkFunds(requestedAmount)) {\n            _currentBalance -= requestedAmount;\n            return requestedAmount;\n        } else {\n            return 0;\n        }\n    }\n}",
  "sourcePath": "/Users/riadmohamed/Developer/Blockchain/Projects/SimpleContract/contracts/SimpleContract.sol",
  "compiler": {
    "name": "solc",
    "version": "0.5.16+commit.9c3226ce.Emscripten.clang"
  },
  "schemaVersion": "3.0.22",
  "updatedAt": "2020-07-22T15:10:26.413Z",
  "networkType": "ethereum",
  "devdoc": {
    "methods": {}
  },
  "userdoc": {
    "methods": {}
  }
}